:100000000C9464000C948C000C948C000C94E4060A
:100010000C94E4060C94E4060C948C000C94E60515
:100020000C948C000C948C000C948C000C948C0020
:100030000C948C000C948C000C948C000C948C0010
:100040000C949A060C948C000C9468060C9442064E
:100050000C948C000C948C000C948C000C948C00F0
:100060000C948C000C948C000000000024002700ED
:100070002A0002000000080002010000030407003B
:1000800000000000000000000000002300260029FE
:100090000000000000250028002B000404040404D4
:1000A0000404040202020202020303030303030125
:1000B00002040810204080010204081020010204FC
:1000C000081020005C07950E11241FBECFEFD8E06A
:1000D000DEBFCDBF23E0A6EAB1E001C01D92A6308D
:1000E000B207E1F711E0A0E0B1E0E0EDF7E202C015
:1000F00005900D92A63AB107D9F710E0C3E6D0E01B
:1001000004C02197FE010E94E311C236D107C9F74E
:100110000E94B4080C94DB130C940000AF92BF92C1
:10012000CF92DF92EF92FF920F931F93CF93DF93C3
:100130006C017B018B01040F151FEB015E01AE18F2
:10014000BF08C017D10759F06991D601ED91FC9114
:100150000190F081E02DC6010995892B79F7C50141
:10016000DF91CF911F910F91FF90EF90DF90CF9093
:10017000BF90AF900895FC01538D448D252F30E042
:10018000842F90E0821B930B541710F0CF960895A4
:1001900001970895FC01918D828D981761F0A28DD1
:1001A000AE0FBF2FB11D5D968C91928D9F5F9F7397
:1001B000928F90E008958FEF9FEF0895FC01918D4D
:1001C000828D981731F0828DE80FF11D858D90E0BA
:1001D00008958FEF9FEF0895FC01918D228D892F57
:1001E00090E0805C9F4F821B91098F73992708953F
:1001F00088E092E00E94EC0021E0892B09F420E0E5
:10020000822F089580E090E0892B29F00E94F80069
:1002100081110C9400000895FC01A48DA80FB92F42
:10022000B11DA35ABF4F2C91848D90E001968F731E
:100230009927848FA689B7892C93A089B1898C913D
:10024000837080648C93938D848D981306C002888C
:10025000F389E02D80818F7D80830895EF92FF9256
:100260000F931F93CF93DF93EC0181E0888F9B8DD9
:100270008C8D98131AC0E889F989808185FF15C093
:100280009FB7F894EE89FF896083E889F9898081B6
:100290008370806480839FBF81E090E0DF91CF9185
:1002A0001F910F91FF90EF900895F62E0B8D10E0A7
:1002B0000F5F1F4F0F731127E02E8C8D8E110CC016
:1002C0000FB607FCFACFE889F989808185FFF5CF61
:1002D000CE010E940C01F1CFEB8DEC0FFD2FF11D33
:1002E000E35AFF4FF0829FB7F8940B8FEA89FB899E
:1002F00080818062CFCFCF93DF93EC01888D8823FC
:10030000B9F0AA89BB89E889F9898C9185FD03C078
:10031000808186FD0DC00FB607FCF7CF8C9185FF5D
:10032000F2CF808185FFEDCFCE010E940C01E9CF95
:10033000DF91CF910895833081F028F4813099F0D6
:100340008230A9F008958730A9F08830C9F0843050
:10035000B1F4809180008F7D03C0809180008F7701
:1003600080938000089584B58F7784BD089584B507
:100370008F7DFBCF8091B0008F778093B000089580
:100380008091B0008F7DF9CFCF93DF93282F30E09D
:10039000F901ED58FF4F8491F901E155FF4FD491D8
:1003A000F901E556FF4FC491CC23A1F081110E94C1
:1003B0009B01EC2FF0E0EE0FFF1FE957FF4FA591D7
:1003C000B491EC91ED2381E090E009F480E0DF91BD
:1003D000CF91089580E090E0FACF1F93CF93DF9301
:1003E000282F30E0F901ED58FF4F8491F901E155D4
:1003F000FF4FD491F901E556FF4FC491CC23A9F0EA
:10040000162F81110E949B01EC2FF0E0EE0FFF1FD1
:10041000EF56FF4FA591B4918FB7F894EC9111115D
:1004200008C0D095DE23DC938FBFDF91CF911F9161
:100430000895DE2BF8CF9091000189130BC0E2E7FD
:10044000F0E0E4919FEF90930001E13049F028F053
:10045000E23061F060E00C94ED0110926E00FACF92
:1004600090916F009D7F90936F00F4CF90917000FA
:100470009D7F9093700091E09093B0009091B100B7
:10048000987F94609093B1001092B300E3CFCF9324
:10049000DF9390E0FC01E155FF4F249185569F4F7B
:1004A000FC0184918823D1F090E0880F991FFC0112
:1004B000E859FF4FA591B491FC01EF56FF4FC5914C
:1004C000D49161110EC09FB7F8948C91E22FE09502
:1004D0008E238C932881E223E8839FBFDF91CF9105
:1004E00008958FB7F894EC91E22BEC938FBFF6CF81
:1004F0003FB7F8948091EB019091EC01A091ED0150
:10050000B091EE0126B5A89B05C02F3F19F00196CA
:10051000A11DB11D3FBFBA2FA92F982F8827BC015D
:10052000CD01620F711D811D911D42E0660F771F85
:10053000881F991F4A95D1F708952FB7F8946091B5
:10054000E7017091E8018091E9019091EA012FBFE4
:1005500008952091F1013091F2012817390771F4C3
:100560009091EF018091F001981741F0E091EF0137
:10057000F0E0EA55FE4F808190E008958FEF9FEF05
:1005800008950895EF92FF920F931F93CF93DF93F7
:10059000DC015C96ED90FC905D97E114F10479F438
:1005A00081E090E013969C938E93129790E080E008
:1005B000DF91CF911F910F91FF90EF900895519689
:1005C000ED91FC91529750968C915097982F909561
:1005D0000FB75E962C915E97122F127021FD6095D9
:1005E000F8942081112319F1282B2083E70121970A
:1005F000F1F728E0462F50E0308160FF1AC0382B19
:100600003083E7012197F1F7BA017595679521507D
:1006100089F7112381F08081892380830FBF5C9645
:100620008D919C910197F1F781E090E0C1CF292352
:10063000DCCF3923E5CF9081892BEFCF2091F101D9
:100640003091F2012817390771F48091F00120915F
:10065000EF0190E0805C9F4F821B910960E470E0A5
:100660000E947311089590E080E008952091F101B7
:100670003091F20128173907B9F49091EF01809178
:10068000F001981789F0E091EF01F0E0EA55FE4F94
:1006900080812091EF0130E02F5F3F4F2F73332790
:1006A0002093EF0190E008958FEF9FEF089590E081
:1006B00080E00895FC0101900020E9F73197AF0137
:1006C000481B590BBC0188E092E00C948E008F927D
:1006D0009F92AF92BF920F931F93CF93DF93CDB7AB
:1006E000DEB7A1970FB6F894DEBF0FBECDBF19A23B
:1006F000423008F44AE08E010F5D1F4F842E912C8A
:10070000B12CA12CA50194010E948711E62FB901FB
:10071000CA01EA30F4F4E05DD801EE938D01232B99
:10072000242B252B79F790E080E0109719F0CD016C
:100730000E945A03A1960FB6F894DEBF0FBECDBF3C
:10074000DF91CF911F910F91BF90AF909F908F90AD
:100750000895E95CE1CFCF93DF930E945A03EC0147
:100760008BE491E00E945A038C0F9D1FDF91CF9183
:1007700008958EE491E00C94AB038BE591E00C942A
:10078000AB038F929F92AF92BF92CF92DF92EF9284
:10079000FF926B017C01AC019B0160E070E088EC92
:1007A00092E40E94541020E030E04CE453E40E94B4
:1007B000500F20E030E044EC52E40E94C11020E0F1
:1007C00030E048E452E40E9455104B015C0120E007
:1007D00030E0A9010E94EA0E87FF03C0812C912C12
:1007E00054018092040290920502A0920602B092F7
:1007F0000702A7019601C701B6010E946E11882366
:1008000081F086E691E00E945A038BE491E0FF902C
:10081000EF90DF90CF90BF90AF909F908F900C940F
:100820005A0346015701E894B7F82FEF3FEF4FE71F
:100830005FE7C501B4010E946E1181110DC02FEF59
:100840003FEF4FE75FE7C501B4010E94EA0E1816BB
:100850001CF48AE691E0D7CF2FEF3FEF4FE75FE43C
:10086000C701B6010E94691118161CF48EE691E0CA
:10087000CACF2FEF3FEF4FE75FECC701B6010E94F1
:10088000EA0E87FDF3CF20E030E0A901C701B601F1
:100890000E94EA0E87FF09C06DE288E092E00E94A4
:1008A0002E01F7FAF094F7F8F0942AE037ED43EAD6
:1008B0005BE3C701B6010E9455104B015C010E9429
:1008C0003A116B017C010E94EF0E9B01AC01C50146
:1008D000B4010E9454104B015C014AE0C701B6010B
:1008E0000E9467036EE288E092E00E942E0120E001
:1008F00030E040E251E4C501B4010E94500F4B01C9
:100900005C010E943A116B01F12CE12C4AE0C70115
:10091000B6010E946703C701B6010E94EF0E9B015A
:10092000AC01C501B4010E94541020E030E040E267
:1009300051E40E94500F0E943A1190E080E04AE09A
:100940000E94670362CFFC0180819181009711F0C2
:100950000C94851208950F931F93CF93DF93EC01AE
:1009600088819981009759F02A813B8126173707A2
:1009700030F081E0DF91CF911F910F9108958B01AD
:100980006F5F7F4F0E940E13009759F09983888301
:100990001B830A832C813D81232B59F7FC01108294
:1009A000E8CF80E0E7CFEF92FF920F931F93CF93B2
:1009B000DF936115710541F480E0DF91CF911F91C4
:1009C0000F91FF90EF90089541155105B1F07B0113
:1009D000EC010C811D81040F151FB8010E94AB04AE
:1009E000882351F3288139818C819D81B701820F41
:1009F000931F0E94D4131D830C8381E0DECFEF92FE
:100A0000FF920F931F93CF93DF93EC017B018A0139
:100A1000BA010E94AB0428813981811114C02115CB
:100A2000310519F0C9010E948512198218821D82B0
:100A30001C821B821A82CE01DF91CF911F910F91F0
:100A4000FF90EF9008951D830C83B701C9010E94A8
:100A5000D413F1CFFB0101900020E9F73197AF01EA
:100A6000461B570B0C94FF04FB01DC0111961C92F2
:100A70001E9213961C921E92129715961C921E920D
:100A800014978617970749F0608171816115710588
:100A900021F0448155810C94FF040895EF92FF9258
:100AA0000F931F93CF93DF93CDB7DEB72C970FB67D
:100AB000F894DEBF0FBECDBF8B017A01BC01CE0121
:100AC00001960E94340541E050E062E771E0CE01FA
:100AD00001960E94D30481110CC089819A810097EC
:100AE00011F00E9485121A8219821E821D821C82B8
:100AF0001B82BE016F5F7F4FCE0107960E943405B7
:100B0000CE0101960E94A30490E080E08E159F051F
:100B100064F4F8014481558160817181CE010796AA
:100B20000E94D30481E090E0F1CF8AE089831A82A9
:100B300041E050E0BE016F5F7F4FCE0107960E94FB
:100B4000D3044B855C856F81788583EE92E00E94AB
:100B50008E00CE0107960E94A3042C960FB6F8943F
:100B6000DEBF0FBECDBFDF91CF911F910F91FF90E0
:100B7000EF900895CF93DF9300D000D000D0CDB791
:100B8000DEB784E791E00E94AB031A8219821C82CF
:100B90001B821E821D8260E871E0CE0101960E94D8
:100BA0002A0550E040E070E060E0CE0101960E942E
:100BB0004E05CE0101960E94A30426960FB6F89426
:100BC000DEBF0FBECDBFDF91CF9108951F920F9270
:100BD0000FB60F9211242F933F934F935F936F9310
:100BE0007F938F939F93AF93BF93EF93FF938091E6
:100BF000F8019091F901A091FA01B091FB01892BC4
:100C00008A2B8B2BD1F19091F301E091F401F091BB
:100C1000F5018081892780838091F8019091F90105
:100C2000A091FA01B091FB01181619061A061B06CD
:100C30009CF48091F8019091F901A091FA01B09192
:100C4000FB010197A109B1098093F8019093F90183
:100C5000A093FA01B093FB01FF91EF91BF91AF9187
:100C60009F918F917F916F915F914F913F912F91C4
:100C70000F900FBE0F901F901895809100010E9459
:100C80001B02EACF1F920F920FB60F9211242F93DF
:100C90003F934F935F936F937F938F939F93AF9304
:100CA000BF93EF93FF9388E092E00E940C01FF91C5
:100CB000EF91BF91AF919F918F917F916F915F91D4
:100CC0004F913F912F910F900FBE0F901F9018954D
:100CD0001F920F920FB60F9211242F938F939F9311
:100CE000EF93FF93E0911802F09119028081E09157
:100CF0001E02F0911F0282FD1BC090818091210293
:100D00008F5F8F7320912202821741F0E0912102C0
:100D1000F0E0E85FFD4F958F80932102FF91EF9106
:100D20009F918F912F910F900FBE0F901F9018954C
:100D30008081F4CF1F920F920FB60F9211242F9340
:100D40003F938F939F93AF93BF938091E7019091CF
:100D5000E801A091E901B091EA013091E60123E0B8
:100D6000230F2D3758F50196A11DB11D2093E601E3
:100D70008093E7019093E801A093E901B093EA0121
:100D80008091EB019091EC01A091ED01B091EE0109
:100D90000196A11DB11D8093EB019093EC01A093EE
:100DA000ED01B093EE01BF91AF919F918F913F9173
:100DB0002F910F900FBE0F901F90189526E8230FCC
:100DC0000296A11DB11DD2CF1F920F920FB60F92A6
:100DD00011242F933F934F935F936F937F938F9340
:100DE0009F93AF93BF93EF93FF93E091F101F09145
:100DF000F201309749F0A685B7858585968D91FFDC
:100E000014C09C918923A1F4FF91EF91BF91AF9100
:100E10009F918F917F916F915F914F913F912F9112
:100E20000F900FBE0F901F9018959C91892361F72A
:100E3000A389B4899C918589809589238C9386891F
:100E400097890197F1F7608D718DA685B7855585D6
:100E500038E020E0CB010197F1F7822F90E09595E3
:100E60008795282F4C91452309F02068315091F740
:100E7000868D81FD20958091F00190E001968F7321
:100E800099273091EF01381799F0A091F001B0E067
:100E9000AA55BE4F2C938093F001828D938D0197BC
:100EA000F1F7A389B4898C919589892B8C93ACCF68
:100EB000868D8160868FF1CF10920B0210920A020C
:100EC00088EE93E0A0E0B0E080930C0290930D02D6
:100ED000A0930E02B0930F022BE231E0309309028F
:100EE0002093080225EC30E0309315022093140281
:100EF00024EC30E0309317022093160220EC30E00F
:100F0000309319022093180221EC30E030931B0239
:100F100020931A0222EC30E030931D0220931C0231
:100F200026EC30E030931F0220931E021092210223
:100F30001092220210922302109224021092E602D2
:100F40001092E5028093E7029093E802A093E902F1
:100F5000B093EA028DE391E09093E4028093E30280
:100F60001092FA021092F9021092FC021092FB0207
:100F70001092FE021092FD02109200031092FF02E6
:100F8000609101036E7F6D7F6093010366956170D0
:100F900081E0682783E00E94ED0161E083E00E9428
:100FA0004702E2EBF0E0E491E093F302EEE9F0E0D7
:100FB000E491F0E0EE0FFF1FEF56FF4F8591949103
:100FC0009093F5028093F40260E084E00E9447026F
:100FD0008091010381FD04C061E084E00E94ED0185
:100FE00084E08093EF02E3EBF0E0E491E093F00221
:100FF000EFE9F0E0E491F0E0EE0FFF1FE957FF4F5B
:10100000859194919093F2028093F1021092DE0206
:101010001092DD021092E0021092DF021092E202C2
:101020001092E1026DE471E08DED92E00E942A05DC
:101030001092C5021092C6021092C7021092C80206
:101040001092C9021092CA021092CB021092CC02E6
:101050001092D3021092D4021092D5021092D602AE
:101060001092D7021092D8021092D9021092DA028E
:101070001092DB021092DC0288E090E09093CE02A6
:101080008093CD0287E090E09093D0028093CF02CE
:1010900081EC93E09093D2028093D10261E087E0EB
:1010A0000E94470260E08091CD020E94470260E00A
:1010B0008091CF020E94ED0188EE93E0A0E0B0E0C5
:1010C0008093A5029093A602A093A702B093A802D2
:1010D0004AEF50E060E070E04093A9025093AA020A
:1010E0006093AB027093AC028093AD029093AE021A
:1010F000A093AF02B093B0028AE090E0A0E0B0E02D
:101100008093B1029093B202A093B302B093B40261
:101110001092B7021092B8021092B9021092BA025D
:101120001092BB021092BC021092BD021092BE023D
:1011300089E090E09093B6028093B5028AEB95E047
:101140009093C0028093BF0289EB93E09093C20218
:101150008093C1028DEB93E09093C4028093C3020D
:1011600060E089E00C944702CF93DF93CDB7DEB700
:10117000AE970FB6F894DEBF0FBECDBF789484B59E
:10118000826084BD84B5816084BD85B5826085BD83
:1011900085B5816085BD80916E00816080936E0011
:1011A0001092810080918100826080938100809103
:1011B00081008160809381008091800081608093B4
:1011C00080008091B10084608093B1008091B00074
:1011D00081608093B00080917A00846080937A006F
:1011E00080917A00826080937A0080917A00816099
:1011F00080937A0080917A00806880937A001092C0
:10120000C100E0911802F091190282E08083E09120
:101210001402F09115021082E0911602F09117026B
:101220008FEC808310922002E0911C02F0911D024D
:1012300086E08083E0911A02F0911B028081806138
:101240008083E0911A02F0911B0280818860808384
:10125000E0911A02F0911B02808180688083E09106
:101260001A02F0911B0280818F7D80831092FE0212
:101270001092FD021092FC021092FB021092FA02F0
:101280001092F9028DE991E0909300038093FF02A0
:101290009091EF02963108F047C02DEB30E030938B
:1012A000FA022093F9022BE931E03093FC022093FB
:1012B000FB022CE231E03093FE022093FD022091EC
:1012C000680084E0983048F031E09E3008F430E067
:1012D00081E001C0880F3A95EAF7822B809368007D
:1012E0002DE630E0983050F02BE630E09E3030F0C4
:1012F0002CE630E0963110F030E020E03093F70239
:101300002093F602292F30E0983008F07DC181E06B
:1013100001C0880F9A95EAF78093F8028091FF0246
:10132000909100030197F1F78091FD029091FE02E8
:10133000892B49F1E091F101F091F20122E0E33EC5
:10134000F20709F1309739F0A389B4899C91858916
:10135000809589238C93809101038E7F8093010374
:101360001092F0011092EF0183EE92E09093F2015F
:101370008093F101E091F602F091F7028081909163
:10138000F802892B808360E082E00E94470261E0DE
:1013900085E00E94470280E090E0A8ECB2E48093F0
:1013A000C5029093C602A093C702B093C80260E042
:1013B0008EE00E9447021C8A1B8A1E8A1D8A188E94
:1013C0001F8A4AE08E010F5F1F4FB80184E690E04C
:1013D0000E94B50EF80101900020E9F73197AF01A6
:1013E000401B510BB801CE0143960E94FF041A82A4
:1013F00019821C821B821E821D8262E971E0C80173
:101400000E942A0541E050E0BE016D5E7F4FC80199
:101410000E944E05C8010E94A304CE0143960E947B
:10142000A30480E1E7E0F1E0DE01539601900D9224
:101430008A95E1F780E1E7E1F1E0D80101900D92B2
:101440008A95E1F71AA709A7CE0143969CA78BA717
:10145000DE015196BCA3ABA3E9A5FAA561917191F8
:10146000FAA7E9A788EE93E00E9473117EA76DA703
:10147000CB01092E000CAA0BBB0B8DA39EA3AFA31F
:10148000B8A7ABA5BCA52D903D90BCA7ABA78091FC
:101490000001883009F0C5C0E2E7F0E0149117FDC3
:1014A000A7C161E088E00E944702112319F01230C1
:1014B00009F0D3C14101B12CA12C60E072E18AE7AF
:1014C00090E0A50191010E94A91129013A017A0138
:1014D0006901F1E0CF1AD108E108F1082FEFC21637
:1014E000D104E104F10409F00CF459C160E472E4A0
:1014F0008FE090E0A50191010E94A91169017A0194
:1015000081E0C81AD108E108F108123009F0FEC0E4
:1015100082E09FEFC916D104E104F10409F00CF454
:101520006CC060E970ED83E090E0A50191010E943C
:10153000A91169017A01A1E0CA1AD108E108F108EC
:1015400083E0BFEFCB16D104E104F10409F00CF401
:1015500054C068E478EE81E090E0A50191010E941A
:10156000A91169017A0181E0C81AD108E108F108DE
:1015700084E09FEFC916D104E104F104F1F1ECF12C
:1015800064E274EF80E090E0A50194010E94A9114B
:1015900069017A0181E0C81AD108E108F10885E003
:1015A000FFEFCF16D104E104F10439F130F162E12B
:1015B0007AE780E090E0A50194010E94A9116901F9
:1015C0007A01B1E0CB1AD108E108F10886E0EFEF2B
:1015D000CE16D104E104F10481F078F073016201C8
:1015E0009AE0F594E794D794C7949A95D1F7F1E0EF
:1015F000CF1AD108E108F10887E09091B100987FF7
:10160000892B8093B100D2C09E3040F4285031091C
:1016100081E001C0880F2A95EAF77ECE2E5031096D
:10162000F7CF8F3F09F0E4C088E080930001E2E744
:10163000F0E014911F3F09F4DBC0113029F150F0A4
:10164000123009F440C017FDD3C061E088E00E9469
:1016500047022DCF14BC15BC84B5826084BD85B50E
:10166000816085BDE3EAF0E08491E82FF0E0EE0FC1
:10167000FF1FEF56FF4F85919491E7EBF0E08491C7
:101680008093F70110E00DCF10928000109281003E
:1016900080918100886080938100809181008160C9
:1016A00080938100E3EAF0E08491E82FF0E0EE0F10
:1016B000FF1FEF56FF4F85919491E7EBF0E0849187
:1016C0008093F601EECE1092B0001092B10080919E
:1016D000B00082608093B0008091B10081608093FF
:1016E000B100E3EAF0E08491E82FF0E0EE0FFF1F95
:1016F000EF56FF4F859194919093F5018093F401FB
:10170000E7EBF0E084918093F301CBCEEFEFCE16C0
:10171000D104E104F10409F00CF49DC068E478EE12
:1017200081E090E0A50191010E94A91169017A016F
:10173000F1E0CF1AD108E108F10884E0111130CFAF
:1017400083E0AFEFCA16D104E104F10459F154F17A
:1017500062E17AE780E090E0A50194010E94A9117E
:1017600069017A0191E0C91AD108E108F10884E021
:10177000AFEFCA16D104E104F104A1F098F07301AF
:1017800062018AE0F594E794D794C7948A95D1F7DB
:1017900021E0C21AD108E108F10885E003C081E028
:1017A00011112BCF95B5987F892B85BD8DA19EA159
:1017B000AFA1B8A52FEF3FEFA901892B8A2B8B2B67
:1017C00009F087C0113009F492C0123009F4A1C0A9
:1017D00011110EC0C7BC2093000230930102409348
:1017E00002025093030280916E00826080936E002B
:1017F0006DA17EA18FA198A50E94F10E26E636E686
:1018000046EA5FE30E94500F0E9433116B01770F8D
:10181000EE08FF080E9478024B015C01C114D1045C
:10182000E104F10409F485C00E947802681979097D
:101830008A099B09683E73408105910578F391E020
:10184000C91AD108E108F108A8EE8A0EA3E09A1E91
:10185000A11CB11CE3CF82E0A3CFB12CA12C60E08E
:1018600072E18AE790E0A50191010E94A911690146
:101870007A01B1E0CB1AD108E108F10891E0C11476
:10188000D104E1E0EE06F10484F068E478EE81E052
:1018900090E0A50191010E94A91169017A01F1E08E
:1018A000CF1AD108E108F10893E0113009F07ECF9A
:1018B00080918100887F892B809381008DA19EA1DA
:1018C000AFA1B8A52FEF3FEFA901892B8A2B8B2B56
:1018D00071F09101220F331FADA5BEA50E94C81162
:1018E00028EE33E040E050E00E9487116BCFD092A9
:1018F0008900C09288002093FC013093FD01409341
:10190000FE015093FF0180916F00826080936F0011
:101910006FCFC092B3002093F8013093F901409348
:10192000FA015093FB0180917000826080937000F7
:101930005FCF88E00E941B02EBA1FCA129A53AA57C
:10194000E217F30709F088CD28E7822E20E0922ED7
:1019500030E0A32E30E0B32E772473948091D80228
:10196000882309F4D0C08091CD020E94C401892B44
:10197000B1F08091D9029091DA02A091DB02B0918E
:10198000DC02892B8A2B8B2B51F40E947802609306
:10199000D9027093DA028093DB029093DC0280918B
:1019A000CD020E94C401892BB9F58091D902909192
:1019B000DA02A091DB02B091DC02892B8A2B8B2BFF
:1019C00059F10E9478020091D9021091DA02209117
:1019D000DB023091DC02601B710B820B930B0E94C7
:1019E000EF0E26E933E44BE05DE30E94500F20E068
:1019F00030E040E05FE30E94500F1092D802109256
:101A0000D9021092DA021092DB021092DC02E0910D
:101A1000D102F091D2020995609104027091050201
:101A200080910602909107020E9433116B018B0195
:101A300061E085E00E944702C114D10409F0A0C012
:101A400060E085E00E94ED018091B5020E94C40132
:101A500021E0892B09F420E02093B8020E949D0226
:101A6000AB01BC018091BB029091BC02A091BD0270
:101A7000B091BE020091B1021091B2022091B30266
:101A80003091B402800F911FA21FB31F481759074E
:101A90006A077B0708F415C18091B902882309F40D
:101AA0001CC18091B802882309F4B0C08091B702AC
:101AB000882309F4ABC00E949D02AB01BC01809158
:101AC000BB029091BC02A091BD02B091BE020091F8
:101AD000AD021091AE022091AF023091B002800FA2
:101AE000911FA21FB31F481759076A077B0708F405
:101AF000E4C0E091C302F091C40209951092B902CA
:101B00001092BA02D0C08091D302811112C061E05C
:101B10008091CF020E94ED010E9478026093D4026E
:101B20007093D5028093D6029093D7027092D3021D
:101B300073CF0E947802AB01BC018091D4029091D6
:101B4000D502A091D602B091D7020A96A11DB11D6F
:101B5000481759076A077B0708F45ECF60E0809159
:101B6000CF020E94ED011092D4021092D502109281
:101B7000D6021092D7021092D3027092D8024CCFA4
:101B80000F3F110511F461E05CCFF40184918330C3
:101B900019F140F48130B1F08230C9F000381105FC
:101BA00094F74ECF873011F1883041F18430B1F78E
:101BB00080918000806280938000D0928B00C092E0
:101BC0008A0042CF84B5806884BDC7BC3DCF84B550
:101BD000806284BDC8BC38CF8091800080688093CB
:101BE0008000D0928900C09288002ECF8091B000F2
:101BF00080688093B000C092B30026CF8091B0007F
:101C000080628093B000C092B4001ECF0E949D02FB
:101C1000AB01BC018091BB029091BC02A091BD02BE
:101C2000B091BE020091A9021091AA022091AB02CC
:101C30003091AC02800F911FA21FB31F841795072C
:101C4000A607B70760F08091B802882341F0809121
:101C5000B702E091C102F091C202882309F10E940B
:101C60009D02AB01BC018091BB029091BC02A0918E
:101C7000BD02B091BE020091A9021091AA0220916A
:101C8000AB023091AC02800F911FA21FB31F8417CB
:101C90009507A607B70788F4E091BF02F091C0024C
:101CA00009951092B9020E949D026093BB02709345
:101CB000BC028093BD029093BE028091B8028093D3
:101CC000B702A114B10409F449CE0E94F800882398
:101CD00009F444CE0E94000041CE0E949D02AB0157
:101CE000BC018091BB029091BC02A091BD02B09159
:101CF000BE020091A5021091A6022091A702309188
:101D0000A802800F911FA21FB31F481759076A0727
:101D10007B0798F28091B802882379F28091B7020C
:101D20008111CBCF7092B902EBCE8DED92E00E9483
:101D3000A3048DE391E09093E4028093E302809109
:101D4000F1019091F201835E924071F4E091F6020C
:101D5000F091F70290818091F80280958923808329
:101D60001092F2011092F1010895BB274A3031F42C
:101D7000992322F4BDE2909581959F4F0C94C10E5A
:101D8000BB27FB015527AA27880F991FAA1FA41755
:101D900010F0A41B83955051B9F7A05DAA3308F049
:101DA000A95DA193009779F7B111B1931192CB017D
:101DB0000C94DA0EDC01FC01672F71917723E1F7B7
:101DC000329704C07C916D9370836291AE17BF0708
:101DD000C8F308950E942C0F08F481E00895E89458
:101DE00009C097FB3EF490958095709561957F4F63
:101DF0008F4F9F4F9923A9F0F92F96E9BB27939511
:101E0000F695879577956795B795F111F8CFFAF420
:101E1000BB0F11F460FF1BC06F5F7F4F8F4F9F4F51
:101E200016C0882311F096E911C0772321F09EE8AF
:101E3000872F762F05C0662371F096E8862F70E015
:101E400060E02AF09A95660F771F881FDAF7880FEF
:101E50009695879597F90895990F0008550FAA0B45
:101E6000E0E8FEEF16161706E807F907C0F01216AD
:101E70001306E407F50798F0621B730B840B950BB0
:101E800039F40A2661F0232B242B252B21F4089505
:101E90000A2609F4A140A6958FEF811D811D0895A2
:101EA0000E94630F0C94D40F0E94C60F38F00E945A
:101EB000CD0F20F0952311F00C94BD0F0C94C30F9F
:101EC00011240C9408100E94E50F70F3959FC1F344
:101ED000950F50E0551F629FF001729FBB27F00DD8
:101EE000B11D639FAA27F00DB11DAA1F649F66272D
:101EF000B00DA11D661F829F2227B00DA11D621F7C
:101F0000739FB00DA11D621F839FA00D611D221F35
:101F1000749F3327A00D611D231F849F600D211D19
:101F2000822F762F6A2F11249F5750409AF0F1F09C
:101F300088234AF0EE0FFF1FBB1F661F771F881F05
:101F400091505040A9F79E3F510580F00C94BD0F71
:101F50000C9408105F3FE4F3983ED4F38695779590
:101F60006795B795F795E7959F5FC1F7FE2B880FAB
:101F7000911D9695879597F9089597F99F6780E841
:101F800070E060E008959FEF80EC089500240A94CB
:101F90001616170618060906089500240A94121644
:101FA0001306140605060895092E0394000C11F477
:101FB000882352F0BB0F40F4BF2B11F460FF04C024
:101FC0006F5F7F4F8F4F9F4F089557FD9058440F7D
:101FD000551F59F05F3F71F04795880F97FB991F88
:101FE00061F09F3F79F08795089512161306140645
:101FF000551FF2CF4695F1DF08C0161617061806D2
:10200000991FF1CF86957105610508940895E894AC
:10201000BB2766277727CB0197F908952F923F9228
:102020004F925F926F927F928F929F92AF92BF92E8
:10203000CF92DF92EF92FF920F931F93CF93DF9394
:10204000CDB7DEB7CA1BDB0B0FB6F894DEBF0FBEF1
:10205000CDBF09942A88398848885F846E847D843E
:102060008C849B84AA84B984C884DF80EE80FD8040
:102070000C811B81AA81B981CE0FD11D0FB6F894B6
:10208000DEBF0FBECDBFED010895A29FB001B39F8B
:10209000C001A39F700D811D1124911DB29F700D71
:1020A000811D1124911D08955058BB27AA270E9415
:1020B0006C100C94D40F0E94C60F38F00E94CD0F04
:1020C00020F039F49F3F19F426F40C94C30F0EF45A
:1020D000E095E7FB0C94BD0FE92F0E94E50F58F344
:1020E000BA17620773078407950720F079F4A6F5FD
:1020F0000C9407100EF4E0950B2EBA2FA02D0B01B7
:10210000B90190010C01CA01A0011124FF27591B3C
:1021100099F0593F50F4503E68F11A16F040A22F42
:10212000232F342F4427585FF3CF469537952795B3
:10213000A795F0405395C9F77EF41F16BA0B620BB2
:10214000730B840BBAF09150A1F0FF0FBB1F661FF9
:10215000771F881FC2F70EC0BA0F621F731F841F3C
:1021600048F4879577956795B795F7959E3F08F062
:10217000B0CF9395880F08F09927EE0F9795879524
:1021800008950E94D5100C94D40F0E94CD0F58F0E2
:102190000E94C60F40F029F45F3F29F00C94BD0F58
:1021A00051110C9408100C94C30F0E94E50F68F3B2
:1021B0009923B1F3552391F3951B550BBB27AA2700
:1021C00062177307840738F09F5F5F4F220F331F3A
:1021D000441FAA1FA9F335D00E2E3AF0E0E832D002
:1021E00091505040E695001CCAF72BD0FE2F29D005
:1021F000660F771F881FBB1F261737074807AB07D7
:10220000B0E809F0BB0B802DBF01FF2793585F4F4B
:102210003AF09E3F510578F00C94BD0F0C940810D5
:102220005F3FE4F3983ED4F3869577956795B7952D
:10223000F7959F5FC9F7880F911D9695879597F938
:102240000895E1E0660F771F881FBB1F62177307B1
:102250008407BA0720F0621B730B840BBA0BEE1FC6
:1022600088F7E09508950E943A116894B1110C9492
:10227000081008950E94ED0F88F09F5798F0B92F2D
:102280009927B751B0F0E1F0660F771F881F991FAB
:102290001AF0BA95C9F714C0B13091F00E94071036
:1022A000B1E008950C940710672F782F8827B85F46
:1022B00039F0B93FCCF3869577956795B395D9F703
:1022C0003EF490958095709561957F4F8F4F9F4F0D
:1022D00008950E942C0F08F48FEF08950E942C0F90
:1022E000880B990B089597FB072E16F4009407D0DE
:1022F00077FD09D00E94CF1107FC05D03EF49095E0
:1023000081959F4F0895709561957F4F0895A1E243
:102310001A2EAA1BBB1BFD010DC0AA1FBB1FEE1F5F
:10232000FF1FA217B307E407F50720F0A21BB30BAA
:10233000E40BF50B661F771F881F991F1A9469F726
:1023400060957095809590959B01AC01BD01CF0182
:102350000895052E97FB1EF400940E94C01157FDAE
:1023600007D00E94871107FC03D04EF40C94C011D3
:1023700050954095309521953F4F4F4F5F4F0895B1
:1023800090958095709561957F4F8F4F9F4F0895E1
:102390000E944510B7FF0895821B930B0895AA1B56
:1023A000BB1B51E107C0AA1FBB1FA617B70710F040
:1023B000A61BB70B881F991F5A95A9F78095909572
:1023C000BC01CD010895EE0FFF1F0590F491E02DA3
:1023D00009940F931F93CF93DF938230910510F4EC
:1023E00082E090E0E0910403F091050330E020E00A
:1023F000B0E0A0E0309799F42115310509F44AC006
:10240000281B390B24303105D8F58A819B81611551
:10241000710589F1FB0193838283FE0111C0408124
:1024200051810281138148175907E0F04817590775
:1024300099F4109761F012960C93129713961C93CF
:102440003296CF01DF91CF911F910F9108950093A4
:10245000040310930503F4CF2115310551F0421701
:10246000530738F0A901DB019A01BD01DF01F80132
:10247000C1CFEF01F9CF9093050380930403CDCF33
:10248000FE01E20FF31F81939193225031093983AA
:102490002883D7CF2091020330910303232B41F4EB
:1024A0002091030130910401309303032093020330
:1024B00020910101309102012115310541F42DB720
:1024C0003EB74091050150910601241B350BE09168
:1024D0000203F0910303E217F307A0F42E1B3F0B56
:1024E0002817390778F0AC014E5F5F4F2417350786
:1024F00048F04E0F5F1F50930303409302038193F4
:1025000091939FCFF0E0E0E09CCFCF93DF930097D3
:10251000E9F0FC01329713821282A0910403B0917A
:102520000503ED0130E020E01097A1F42081318116
:10253000820F931F2091020330910303281739075C
:1025400009F061C0F0930303E0930203DF91CF91A0
:102550000895EA01CE17DF07E8F54A815B819E0105
:1025600041155105B1F7E901FB83EA83499159917E
:10257000C40FD51FEC17FD0761F48081918102968D
:10258000840F951FE90199838883828193819B83BE
:102590008A83F0E0E0E012968D919C91139700976A
:1025A000B9F52D913C911197CD010296820F931FA1
:1025B00020910203309103032817390739F6309729
:1025C00051F51092050310920403B0930303A093F6
:1025D0000203BCCFD383C28340815181840F951FF6
:1025E000C817D90761F44E5F5F4F88819981480F02
:1025F000591F518340838A819B8193838283211554
:10260000310509F0B0CFF0930503E09304039ECFAA
:10261000FD01DC01C0CF13821282D7CFB0E0A0E071
:10262000E4E1F3E10C9410108C01009751F4CB011C
:102630000E94E9118C01C801CDB7DEB7E0E10C942E
:102640002C10FC01E60FF71F9C0122503109E21704
:10265000F30708F49DC0D901CD91DC911197C617FD
:10266000D70798F0C530D10530F3CE01049786170F
:10267000970708F3C61BD70B2297C193D1936D938D
:102680007C93CF010E948512D6CF5B01AC1ABD0AA4
:102690004C018C0E9D1EA0910403B0910503512C9A
:1026A000412CF12CE12C109731F58091020390918F
:1026B00003038815990509F05CC04616570608F013
:1026C00058C08091010190910201009741F48DB7AB
:1026D0009EB74091050150910601841B950BE817A8
:1026E000F90708F055C0F0930303E0930203F901E2
:1026F00071836083A0CF8D919C91119712966C90FD
:10270000129713967C901397A815B90559F56C018B
:1027100042E0C40ED11CCA14DB0420F1AC014A19FA
:102720005B09DA011296159780F0628273825183F9
:102730004083D9016D937C93E114F10471F0D701CA
:102740001396FC93EE93129776CF22968C0F9D1FD3
:10275000F90191838083F301EFCFF0930503E093B8
:10276000040369CF4816590608F42C017D01D301F2
:102770009ACFCB010E94E9117C01009749F0AE018C
:10278000B8010E94CB13C8010E948512870153CF64
:1027900010E000E050CFFB01DC0102C001900D927F
:1027A00041505040D8F70895FB01DC0101900D9293
:1027B0000020E1F7089510E0C3E6D0E004C0FE0178
:1027C0000E94E3112196C436D107C9F7F894FFCFD0
:1027D000FF0000060380000601C400C400DC00C442
:1027E000000000F7000601040008000800040004CF
:1027F00000040004000400000000002E018E00BB55
:10280000007B01EC00CA00DE0000000000C2028E66
:10281000005703C1021E033603A9020D0A00446FCC
:1028200075626C65207072657373004C6F6E672003
:102830007072657373006E616E00696E66006F760C
:1028400066003A0053656E64696E6720534D53000D
:1028500053454E445F4C4F434154494F4E5F534D97
:102860005300424154544552595F50455243454EDE
:0628700054414745000041
:00000001FF
